:040000000DEF00F010
:040008006DEF0DF09B
:06001800FF00FDEF0EF0F9
:071000000083400220000004
:10100800EAEC0EF0D29E21EC0FF0F2EC0DF04AEC77
:101018000FF026EC0DF0F7EC0FF0750E0F6E000ECA
:10102800106E030E126EF20E116E20EC0EF07C0E96
:10103800036E000E046E8AEC0EF0600E036E000E56
:10104800046E8AEC0EF09C0E036E000E046E90EC9B
:101058000CF09C0E036E000E046E000E056E98ECEC
:101068000FF09C0E036E000E046E010E056E8EECE2
:101078000FF09C0E036E000E046E010E056E84ECDC
:101088000FF0910E036E000E046EB1EC0DF03D01F1
:10109800148FBFEC0EF00009D8B455EF08F057EFE5
:1010A80008F05DEF08F0750E036E000E046EB2ECEA
:1010B8000AF0750E036E000E046EACEC0FF000091A
:1010C800D8B469EF08F06BEF08F07DEF08F0750E03
:1010D800036E000E046EB5EC0FF0180EC6EC0FF0A0
:1010E800010E0001B36F9C0E046E000E056E1FEC1E
:1010F8000BF06EEC0FF00009D8B485EF08F087EF1D
:1011080008F0BBEF08F00001B351D8B48EEF08F037
:1011180090EF08F0BBEF08F079EC0FF003C0AEF0E9
:1011280004C0AFF0010E0001B16F7C0E076E000E17
:10113800086EAF510F0B096EE5EC0BF07C0E076ED5
:10114800000E086EAEC009F0E5EC0BF07C0E076EE1
:10115800000E086E2C0E096EE5EC0BF0000E000177
:10116800B36F1B0EC6EC0FF0010E0001B26F000149
:10117800B151D8B4C2EF08F0C4EF08F0EDEF08F0B1
:101188003D0117ABCAEF08F0CCEF08F0EDEF08F01F
:10119800000E0001B16FBE80BB98BB98BB88010EE2
:1011A800B06F9C0E036E000E046E000E056E98EC78
:1011B8000FF09C0E036E000E046EAEC005F0AFC0BB
:1011C80006F03DEC0FF09C0E046E000E056E1FEC51
:1011D8000BF06EEC0FF00009D8B4F5EF08F0F7EF5C
:1011E80008F02BEF09F00001B251D8B4FEEF08F077
:1011F80000EF09F02BEF09F079EC0FF003C0ACF029
:1012080004C0ADF07C0E076E000E086E0001AD51F3
:101218000F0B096EE5EC0BF07C0E076E000E086EE6
:10122800ACC009F0E5EC0BF07C0E076E000E086E02
:10123800130E096EE5EC0BF07C0E076E000E086EBF
:10124800100E096EE5EC0BF0000E0001B26F000104
:10125800B051D8B432EF09F034EF09F05DEF09F07E
:101268003D0117AB3AEF09F03CEF09F05DEF09F0EB
:10127800000E0001B06FBE80BB98BB98BB88010E02
:10128800B16F9C0E036E000E046E010E056E98EC95
:101298000FF09C0E036E000E046EACC005F0ADC0DE
:1012A80006F03DEC0FF09C0E046E000E056E1FEC70
:1012B8000BF0A9EC0EF00009D8B465EF09F067EF60
:1012C80009F084EF09F07C0E036E000E046E6AECE0
:1012D8000EF003500410D8A474EF09F076EF09F06B
:1012E80084EF09F07C0E076E000E086E89EC0BF097
:1012F800136E146A13C00CF014C00DF0A2EC0FF0BA
:1013080063EC0FF00009D8B48CEF09F08EEF09F008
:1013180096EF09F0910E046E000E056E000E066E33
:10132800BAEC09F0910E036E000E046EBEEC0FF0DD
:101338000009D8B4A2EF09F0A4EF09F04DEF08F0C6
:10134800750E0F6E000E106E910E096E000E0A6E6D
:10135800DBEC0CF0010E0924116E000E0A20126E4F
:1013680020EC0EF04DEF08F00DEF00F0600013F0E8
:10137800D9FF600017F0DAFF6F00A3F7DFFF600006
:1013880013F0D9FF600017F0DAFFDF5030EC0FF0F0
:1013980087EF0AF0600013F0D9FF600017F0DAFF5A
:1013A8003C0EDE18D8A4DBEF09F0DDEF09F0E9EF19
:1013B80009F020EE07F00450D9260550DA22010E74
:1013C800DE6E000EDD6EB1EF0AF020EE07F004507D
:1013D800D9260550DA22000EDE6E000EDD6EB1EF62
:1013E8000AF020EE07F00450D9260550DA22020E42
:1013F800DE6E000EDD6E600013F0D9FF600017F09E
:10140800DAFFDF50076E086A20EE01F00450D92693
:101418000550DA2260001FF0DEFF600023F0DDFFD8
:10142800B1EF0AF020EE07F00450D9260550DA2271
:10143800030EDE6E000EDD6E600013F0D9FF600053
:1014480017F0DAFFDF50076E086A20EE03F0045049
:10145800D9260550DA2260001FF0DEFF600023F075
:10146800DDFFB1EF0AF020EE07F00450D926055051
:10147800DA22040EDE6E000EDD6E600013F0D9FF76
:10148800600017F0DAFFDF50076E086A20EE05F0FB
:101498000450D9260550DA2260001FF0DEFF6000F4
:1014A80023F0DDFFB1EF0AF0600013F0D9FF600010
:1014B80017F0DAFF3E0EDE18D8A465EF0AF067EFE2
:1014C8000AF07BEF0AF020EE09F00450D926055007
:1014D800DA22010EDF6E20EE07F00450D9260550FF
:1014E800DA22000EDE6E000EDD6EB1EF0AF020EE9D
:1014F80007F00450D9260550DA22000EDE6E000EE1
:10150800DD6EB1EF0AF020EE07F00450D926055041
:10151800DA226F0078FF07F06F0074FF08F00850B8
:10152800000AD8B49AEF0AF0B1EF0AF00750000A9F
:10153800D8B4CEEF09F0010AD8B4F5EF09F0030AE0
:10154800D8B416EF0AF0010AD8B437EF0AF0070A40
:10155800D8B458EF0AF0B1EF0AF0120020EE06F006
:101568000350D9260450DA22DFA0BDEF0AF0BFEFFE
:101578000AF0F1EF0AF060000FF0D9FF600013F0F5
:10158800DAFFDE06000EDD5A60000FF0D9FF6000BA
:1015980013F0DAFFDE50DE10D8A4D5EF0AF0D7EF4B
:1015A8000AF0F1EF0AF020EE06F00350D9260450B5
:1015B800DA22000EDB8220EE02F00350D926045016
:1015C800DA2260000FF0E1FF600013F0E2FF6F0025
:1015D8007BFFE6FF6F0077FFE5FF20EE06F0035084
:1015E800D9260450DA22DFA4FCEF0AF0FEEF0AF055
:1015F8001EEF0BF0FF0E056EFF0E066E20EE04F0D8
:101608000350D9260450DA226F0078FF07F06F00E4
:1016180074FF08F0055007260650082220EE04F053
:101628000350D9260450DA2260001FF0DEFF600064
:1016380023F0DDFF120020EE0CF00450D9260550EF
:10164800DA22600013F0E1FF600017F0E2FF6F009C
:1016580098FF06F06F0094FF07F007C006F0076ACE
:101668000F0E061610EE05F00450E1260550E22292
:10167800E750086E083AF00E0816100E081610EE1D
:1016880004F00450E1260550E222E750096E050EE9
:101698000A6ED89009360A2E4DEF0BF0200E091667
:1016A80010EE03F00450E1260550E222E7500B6EDD
:1016B800000E0BB0800E0B6E0B50800B091008103B
:1016C8000610DF6E600013F0D9FF600017F0DAFF34
:1016D80010EE0DF00450E1260550E2226F007FFF66
:1016E800E7FFBE9020EE0CF00450D9260550DA2210
:1016F800DF50CEEC0FF020EE0DF00450D926055047
:10170800DA22DF50CEEC0FF0120007C003F008C059
:1017180004F06AEC0EF003500410D8A496EF0BF016
:1017280098EF0BF0C0EF0BF020EE11F00750D92620
:101738000850DA226F0078FF09F06F0074FF0AF092
:1017480009500724D96E0A500820DA6EDF500B6E54
:1017580020EE11F00750D9260850DA22DE2A000EB2
:10176800DD2220EE13F00750D9260850DA22DE06D3
:10177800000EDD5AC3EF0BF0010EE4EF0BF020EE84
:1017880011F00750D9260850DA22010EDBBED7EF38
:101798000BF0010EDB5009E10F0EDE5CD8A0D7EF8D
:1017A8000BF0D9EF0BF0E3EF0BF020EE11F0075040
:1017B800D9260850DA22000EDE6E000EDD6E0B50C0
:1017C800120007C003F008C004F049EC0EF0035003
:1017D8000410D8A4F2EF0BF0F4EF0BF03BEF0CF091
:1017E80020EE0FF00750D9260850DA226F0078FF54
:1017F8000AF06F0074FF0BF00A500724D96E0B50E3
:101808000820DA6E600027F0DFFF20EE0FF00750A7
:10181800D9260850DA22DE2A000EDD2220EE13F047
:101828000750D9260850DA22DE2A000EDD2220EEE3
:101838000FF00750D9260850DA22010EDBBE2FEF31
:101848000CF0010EDB5009E10F0EDE5CD8A02FEF83
:101858000CF031EF0CF03BEF0CF020EE0FF00750DE
:10186800D9260850DA22000EDE6E000EDD6E120058
:10187800010EBE6E000EBD6E000EBA6E100EBB6E6F
:10188800000EBC6E000EC66EC268EF0EC36E970ED9
:10189800C46EEF0EC56E3A017069670E606F5069CD
:1018A800070E806F4069000E716F000E816F000E89
:1018B800516F000E416F000E616F000E5A6F000EDF
:1018C8005B6F000E6A6F000E6B6F000E7A6F000E72
:1018D8007B6F000E826F000E426F000E526F000E7B
:1018E800626F000E726F4369536963697369070E0B
:1018F800836F44695469646974690F0E846F130EA9
:10190800DE6F1E0E136F1F0E156F130E166F170E58
:10191800E56F140EDF6F120060000FF0D9FF600052
:1019280013F0DAFF000EDE6E000EDD6E20EE04F01E
:101938000350D9260450DA22000EDF6E20EE03F0A1
:101948000350D9260450DA22000EDF6E20EE05F08F
:101958000350D9260450DA22000EDF6E20EE02F082
:101968000350D9260450DA22000EDF6E20EE06F06E
:101978000350D9260450DA22100EDE6E000EDD6EFA
:1019880020EE08F00350D9260450DA22000EDE6E4D
:10199800000EDD6E20EE0AF00350D9260450DA223C
:1019A800100EDE6E000EDD6EBE80BB88120020EECB
:1019B80009F00950D9260A50DA22000EDF6E20EE0F
:1019C80005F00950D9260A50DA226F0078FF0BF08B
:1019D8006F0074FF0CF020EE01F00950D9260A5070
:1019E800DA226F0078FF03F06F0074FF04F0000E36
:1019F800066E640E056ED5EC0EF003C00DF004C043
:101A08000EF020EE03F00950D9260A50DA226F00B2
:101A180078FF03F06F0074FF04F0000E066E0A0EE4
:101A2800056ED5EC0EF003500D2604500E220B5017
:101A38000D260C500E22300E0D24096EEB0E0E20D2
:101A48000A6E12003901939BE00E036E1F0E046E9E
:101A5800DDEC0FF03901939DE80E036E1F0E046E46
:101A6800D3EC0FF0000E3D01EC6F000EED6F000E91
:101A7800EE6F000EEF6F000EF06F000EF16FB00EFC
:101A8800F26F900EF36F000EF46F820EF56F060E74
:101A9800F66F000EF76F000EF86F000EF96F000E6C
:101AA800FA6F000E036E000E046EE2EC0FF0000EEB
:101AB800036E000E046ED8EC0FF0000E036E000EDD
:101AC800046EE7EC0FF0000E216E3901938B938DB5
:101AD80012006F00E8FF01F06F00ECFF02F039011F
:101AE80093AD79EF0DF07BEF0DF090EF0DF0A3AD16
:101AF80080EF0DF082EF0DF090EF0DF002D88EEF31
:101B08000DF00500FA6E1B50FD6E1C50FE6EFF6A4C
:101B1800FA501200AAEF0DF093AB95EF0DF097EF86
:101B28000DF0AAEF0DF0A3AB9CEF0DF09EEF0DF0BA
:101B3800AAEF0DF002D8AAEF0DF00500FA6E1D50BD
:101B4800FD6E1E50FE6EFF6AFA50120060000BF028
:101B5800FBFF600007F0FAFF110020EE01F00350D0
:101B6800D9260450DA22000EDE6E000EDD6E20EE5D
:101B780003F00350D9260450DA22000EDE6E000E60
:101B8800DD6E20EE05F00350D9260450DA22000E4F
:101B9800DE6E000EDD6E60000FF0D9FF600013F0FE
:101BA800DAFF000EDF6E20EE09F00350D92604504C
:101BB800DA22000EDF6E20EE0AF00350D926045018
:101BC800DA22000EDF6E20EE07F00350D92604500B
:101BD800DA22000EDE6E000EDD6E1200000E3E01EF
:101BE800DE6F000EDF6F000EE06F000EE16F000E7B
:101BF800E46F000EE56F000EEA6F000EEC6F000E4A
:101C0800F16F000EF36F000EF46F000EF56F000E0B
:101C1800F66F000EF76F000EF96F000EFA6F000EE8
:101C2800FB6F000EFC6F030EFD6F000EFE6F1F0EA4
:101C3800FF6F840EF86F120020EE06F00F50D926C1
:101C48001050DA22000EDB8020EE06F00F50D92665
:101C58001050DA22FD0EDF1620EE02F00F50D926C2
:101C68001050DA22600047F0DEFF60004BF0DDFF25
:101C780060003FF0E1FF600043F0E2FF6F007BFF90
:101C8800E6FF6F0077FFE5FF120020EE13F0035028
:101C9800D9260450DA22010EDBBE5DEF0EF0010EEC
:101CA800DB5009E10F0EDE5CD8A05DEF0EF05FEFB0
:101CB8000EF065EF0EF0000E046E010E036E69EF74
:101CC8000EF0000E046E000E036E120020EE13F0EC
:101CD8000350D9260450DA22010EDBBE7FEF0EF046
:101CE800010EDB5006E1DE04D8B07DEF0EF07FEF89
:101CF8000EF085EF0EF0000E046E010E036E89EFF4
:101D08000EF0000E046E000E036E120020EE0FF0AF
:101D18000350D9260450DA22000EDE6E000EDD6E66
:101D280020EE11F00350D9260450DA22000EDE6EA0
:101D3800000EDD6E20EE13F00350D9260450DA228F
:101D4800000EDE6E000EDD6E1200000E036E39010D
:101D5800A3A9B1EF0EF0B3EF0EF0BDEF0EF03D0109
:101D6800F2ABB9EF0EF0BBEF0EF0BDEF0EF0010EC7
:101D7800036E035012003901A4B5C5EF0EF0C8EF89
:101D88000EF0010EC9EF0EF0000E036E0350D8B42A
:101D9800D0EF0EF0D2EF0EF0D3EF0EF0A495035073
:101DA8001200035005026F00CCFF07F06F00D0FF50
:101DB80008F003500602F350082604500502F350B9
:101DC800082607C003F008C004F01200F7EC0FF073
:101DD8000FEC0FF03CEC0CF057EC0FF0ECEC0FF0C4
:101DE800F2EC0DF021EC0FF026EC0DF04AEC0FF0C0
:101DF800120000EEAAF00A0EEE6AE806FDE1216A7A
:101E0800206A1F6A080ED56E000ED66E000ED76EB9
:101E1800000104EF08F0000E3901C06F000EC16F19
:101E2800000EC26F000EC36F000EC46F000EC56FA8
:101E3800000EC66F000EC76F1200030EAE6E000EC6
:101E4800AD6E000EAF6EC70EAB6E000EAA6E3901F6
:101E5800A495D00EAC6E1200036E3901A3A937EF1A
:101E68000FF039EF0FF031EF0FF060000FF0EAFDDF
:101E7800120060000FF0D9FF600013F0DAFF600075
:101E880017F0DEFF60001BF0DDFF1200830E3D013E
:101E9800146F400E156F020E166F000E1C6F200E89
:101EA800196FC4961200600E3901D96F000EDB6FEE
:101EB800000EDD6F080EDF6F000EDE6F12003901B5
:101EC800A3B769EF0FF06CEF0FF0010E6DEF0FF095
:101ED800000E12003E01F8A174EF0FF077EF0FF03B
:101EE800010E78EF0FF0000E12003E01F051066E61
:101EF800056AEF510524036E000E0620046E1200D9
:101F080020EE05F00350D9260450DA22600017F0BD
:101F1800DFFF120020EE04F00350D9260450DA2225
:101F2800600017F0DFFF120020EE03F00350D926FF
:101F38000450DA22600017F0DFFF1200600033F06F
:101F4800D9FF600037F0DAFFDF503D01EA6F120079
:101F580020EE06F00350D9260450DA22DF50020B97
:101F6800120020EE06F00350D9260450DA22FD0EA6
:101F7800DF16120020EE09F00350D9260450DA22A9
:101F8800DF501200036E60000FF0F1FE3E01F88F83
:101F9800F8811200036E60000FF011FD120003C0FB
:101FA8001BF004C01CF0120003C017F004C018F0A6
:101FB800120003C01DF004C01EF0120003C019F087
:101FC80004C01AF0120003C015F004C016F0120085
:101FD800820E3E01C16F1200000E3D01F96F120022
:0A1FE8003D01F89F1200D29A12008A
:020000040020DA
:10000000FF0FFF0FFF0FFF0FFF0FFF0FFF0FFF0F80
:020000040030CA
:0A0000008CFFF7FF9FFFFFFFFFFFDB
:00000001FF
