:040000000DEF00F010
:04000800C9EF0CF040
:06001800FF0053EF0EF0A3
:0710000000024000000000A7
:101008007DEC0EF0B5EC0EF04EEC0DF0D1EC0EF0E0
:10101800DFEC0BF06C0E136E000E146E030E166EE2
:10102800E80E156E7CEC0DF0730E036E000E046E68
:1010380008EC0EF0600E036E000E046E80EC0CF0EF
:10104800600E036E000E046E080E066E000E056E2E
:10105800C4EC0EF0880E036E000E046E0DEC0DF05D
:1010680027EC0EF00009D8B43CEF08F03EEF08F08A
:1010780044EF08F06C0E036E000E046E0EEC0AF0DE
:101088006C0E036E000E046E0AEC0FF00009D8B463
:1010980050EF08F052EF08F05EEF08F06C0E036EA8
:1010A800000E046E13EC0FF0BD88060E24EC0FF052
:1010B800010E236EF4EC0EF00009D8B466EF08F0C8
:1010C80068EF08F088EF08F02350D8B46EEF08F006
:1010D80070EF08F088EF08F0FFEC0EF003C01CF08A
:1010E80004C01DF04DEC0FF0050E24EC0FF0730E4C
:1010F800076E000E086E1CC009F035EC0BF0BD98A9
:10110800000E236E010E226E2250D8B48EEF08F026
:1011180090EF08F0C6EF08F0F4EC0EF00009D8B430
:1011280098EF08F09AEF08F0C6EF08F0000E226E6C
:10113800FFEC0EF003C01AF004C01BF00B0E1B6E80
:10114800B80E1A6E4DEC0FF0730E076E000E086E97
:10115800B80E096E35EC0BF0730E076E000E086EB4
:101168001CC017F01DC018F0040E196E1834183280
:101178001732192EBAEF08F01750F00B0B09096E49
:1011880035EC0BF0730E036E000E046EE8EC0DF0F8
:1011980003500410D8A4D3EF08F0D5EF08F0EBEF14
:1011A80008F0DEEC0EF00009D8B4DDEF08F0DFEF50
:1011B80008F0EBEF08F0730E076E000E086ED9EC1E
:1011C8000AF0176E17500C6E0D6A45EC0FF0E9EC3B
:1011D8000EF00009D8B4F3EF08F0F5EF08F0FBEFD4
:1011E80008F0880E036E000E046E1FEC09F0880EDE
:1011F800036E000E046E1CEC0FF00009D8B407EF64
:1012080009F009EF09F034EF08F06C0E136E000EC8
:10121800146E880E096E000E0A6E31EC0CF0010E89
:101228000924156E000E0A20166E7CEC0DF034EFC2
:1012380008F00DEF00F060000FF0D9FF600013F028
:10124800DAFF6F00A3F7DFFFE3EF09F060000FF0AC
:10125800D9FF600013F0DAFF3C0EDE18D8A437EF90
:1012680009F039EF09F045EF09F020EE07F00350D7
:10127800D9260450DA22010EDE6E000EDD6E0DEF67
:101288000AF020EE07F00350D9260450DA22000EA7
:10129800DE6E000EDD6E0DEF0AF020EE07F0035053
:1012A800D9260450DA22020EDE6E000EDD6E6000D2
:1012B8000FF0D9FF600013F0DAFFDF50056E066A01
:1012C80020EE01F00350D9260450DA22600017F00E
:1012D800DEFF60001BF0DDFF0DEF0AF020EE07F0E7
:1012E8000350D9260450DA22030EDE6E000EDD6E9E
:1012F80060000FF0D9FF600013F0DAFFDF50056ED1
:10130800066A20EE03F00350D9260450DA22600062
:1013180017F0DEFF60001BF0DDFF0DEF0AF020EE96
:1013280007F00350D9260450DA22040EDE6E000EB0
:10133800DD6E60000FF0D9FF600013F0DAFFDF50B8
:10134800056E066A20EE05F00350D9260450DA220D
:10135800600017F0DEFF60001BF0DDFF0DEF0AF004
:1013680060000FF0D9FF600013F0DAFF3E0EDE18C0
:10137800D8A4C1EF09F0C3EF09F0D7EF09F020EEC8
:1013880009F00350D9260450DA22010EDF6E20EE50
:1013980007F00350D9260450DA22000EDE6E000E44
:1013A800DD6E0DEF0AF020EE07F00350D926045049
:1013B800DA22000EDE6E000EDD6E0DEF0AF020EE72
:1013C80007F00350D9260450DA226F0078FF05F0A1
:1013D8006F0074FF06F00650000AD8B4F6EF09F063
:1013E8000DEF0AF00550000AD8B42AEF09F0010AF7
:1013F800D8B451EF09F0030AD8B472EF09F0010A22
:10140800D8B493EF09F0070AD8B4B4EF09F00DEF98
:101418000AF0120020EE06F00350D9260450DA2212
:10142800DFA019EF0AF01BEF0AF04DEF0AF0600099
:101438000FF0D9FF600013F0DAFFDE06000EDD5A68
:1014480060000FF0D9FF600013F0DAFFDE50DE1005
:10145800D8A431EF0AF033EF0AF04DEF0AF020EE8E
:1014680006F00350D9260450DA22000EDB8220EE63
:1014780002F00350D9260450DA2260000FF0E1FF91
:10148800600013F0E2FF6F007BFFE6FF6F0077FF5D
:10149800E5FF20EE06F00350D9260450DA22DFA437
:1014A80058EF0AF05AEF0AF078EF0AF020EE04F04D
:1014B8000350D9260450DA226F0078FF05F06F0038
:1014C80074FF06F0FF0E0524076EFF0E0620086E57
:1014D80020EE04F00350D9260450DA2260001FF0F1
:1014E800DEFF600023F0DDFF1200930E2924D96E81
:1014F800DA6A000EDA22000EDF6E3D01F9A787EFE7
:101508000AF089EF0AF09DEF0AF0930E2924D96EAC
:10151800DA6A000EDA220001DF8202D89DEF0AF0B3
:101528000500FA6EAF51FD6EB051FE6EFF6AFA50BB
:1015380012003D01F9A3A3EF0AF0A5EF0AF0B9EFF5
:101548000AF0930E2924D96EDA6A000EDA22000115
:10155800DF8402D8B9EF0AF00500FA6EAD51FD6ECE
:10156800AE51FE6EFF6AFA501200930E2924D96E0E
:10157800DA6A000EDA22DF50D8B4C5EF0AF0C7EFF6
:101588000AF0D6EF0AF002D8D4EF0AF00500FA6E96
:101598000001AB51FD6EAC51FE6EFF6AFA501200AD
:1015A800D8EF0AF03DEC0EF0120007C003F008C0B7
:1015B80004F0E8EC0DF003500410D8A4E6EF0AF0AC
:1015C800E8EF0AF010EF0BF020EE11F00750D926E3
:1015D8000850DA226F0078FF09F06F0074FF0AF0F4
:1015E80009500724D96E0A500820DA6EDF500B6EB6
:1015F80020EE11F00750D9260850DA22DE2A000E14
:10160800DD2220EE13F00750D9260850DA22DE0634
:10161800000EDD5A13EF0BF0010E34EF0BF020EE45
:1016280011F00750D9260850DA22010EDBBE27EF49
:101638000BF0010EDB5009E10F0EDE5CD8A027EF9E
:101648000BF029EF0BF033EF0BF020EE11F0075001
:10165800D9260850DA22000EDE6E000EDD6E0B5021
:10166800120007C003F008C004F0C7EC0DF00350E7
:101678000410D8A442EF0BF044EF0BF08BEF0BF003
:1016880020EE0FF00750D9260850DA226F0078FFB5
:101698000AF06F0074FF0BF00A500724D96E0B5044
:1016A8000820DA6E600027F0DFFF20EE0FF0075009
:1016B800D9260850DA22DE2A000EDD2220EE13F0A9
:1016C8000750D9260850DA22DE2A000EDD2220EE45
:1016D8000FF00750D9260850DA22010EDBBE7FEF43
:1016E8000BF0010EDB5009E10F0EDE5CD8A07FEF96
:1016F8000BF081EF0BF08BEF0BF020EE0FF00750A3
:10170800D9260850DA22000EDE6E000EDD6E1200B9
:10171800000EBE6E000EBD6E000EBA6E000EBB6EE1
:10172800000EBC6E070EC66EC268C368970EC46E04
:10173800EF0EC56E3A017069670E606F5069070E4B
:10174800806F4069000E716F000E816F000E516F3F
:10175800000E416F000E616F000E5A6F000E5B6F36
:10176800000E6A6F000E6B6F000E7A6F000E7B6FB3
:10177800000E826F000E426F000E526F000E626FF5
:10178800000E726F4369536963697369070E836F4B
:1017980044695469646974690F0E846F130EDE6FAF
:1017A8001E0E136F1F0E156F130E166F170EE56FB3
:1017B800140EDF6F120039019397F20E036E140EA8
:1017C800046E31EC0FF0390193994A0E036E1B0E2B
:1017D800046E2CEC0FF0000E3D01EC6F000EED6F67
:1017E800000EEE6F000EEF6F000EF06F000EF16F3F
:1017F800B00EF26F800EF36F000EF46F070EF56FE8
:10180800000EF66F000EF76F000EF86F000EF96FFE
:10181800000EFA6FAE0E036E1E0E046E3BEC0FF058
:10182800AC0E036E1E0E046E36EC0FF0A20E036EA5
:101838001E0E046E40EC0FF0000E266E000E2C6E8D
:10184800000E2B6E080E2A6E000E296E000E286EF2
:10185800000E276E39019387120020EE09F0095017
:10186800D9260A50DA22000EDF6E20EE05F0095064
:10187800D9260A50DA226F0078FF0BF06F0074FF48
:101888000CF020EE01F00950D9260A50DA226F0038
:1018980078FF03F06F0074FF04F0000E066E640E0C
:1018A800056E68EC0EF003C00DF004C00EF020EEDB
:1018B80003F00950D9260A50DA226F0078FF03F0A6
:1018C8006F0074FF04F0000E066E0A0E056E68ECD9
:1018D8000EF003500D240F6E04500E20106E0B50A6
:1018E8000F24116E0C501020126E300E1124096E48
:1018F800EB0E12200A6E120060000FF0D9FF600094
:1019080013F0DAFF000EDE6E000EDD6E20EE04F03E
:101918000350D9260450DA22000EDF6E20EE03F0C1
:101928000350D9260450DA22000EDF6E20EE05F0AF
:101938000350D9260450DA22000EDF6E20EE02F0A2
:101948000350D9260450DA22000EDF6E20EE06F08E
:101958000350D9260450DA22100EDE6E000EDD6E1A
:1019680020EE08F00350D9260450DA22000EDE6E6D
:10197800000EDD6E20EE0AF00350D9260450DA225C
:10198800100EDE6E000EDD6E12006F00E8FF01F033
:101998006F00ECFF02F0390193A9D5EF0CF0D7EFF7
:1019A8000CF0ECEF0CF0A3A9DCEF0CF0DEEF0CF080
:1019B800ECEF0CF002D8EAEF0CF00500FA6E1E50BE
:1019C800FD6E1F50FE6EFF6AFA50120006EF0DF012
:1019D80093A7F1EF0CF0F3EF0CF006EF0DF0A3A7CF
:1019E800F8EF0CF0FAEF0CF006EF0DF002D806EF66
:1019F8000DF00500FA6E2050FD6E2150FE6EFF6A54
:101A0800FA50120060000BF0FBFF600007F0FAFFCD
:101A1800110020EE01F00350D9260450DA22000EFE
:101A2800DE6E000EDD6E20EE03F00350D926045062
:101A3800DA22000EDE6E000EDD6E20EE05F0035099
:101A4800D9260450DA22000EDE6E000EDD6E60002C
:101A58000FF0D9FF600013F0DAFF000EDF6E20EE02
:101A680009F00350D9260450DA22000EDF6E20EE6A
:101A78000AF00350D9260450DA22000EDF6E20EE59
:101A880007F00350D9260450DA22000EDE6E000E4D
:101A9800DD6E1200000E3E01DE6F000EDF6F000EDD
:101AA800E06F000EE16F000EE46F000EE56F000EB0
:101AB800EA6F000EEC6F000EF16F000EF36F000E70
:101AC800F46F000EF56F000EF66F000EF76F000E44
:101AD800F96F000EFA6F000EFB6F000EFC6F000E20
:101AE800FD6F000EFE6F1F0EFF6F840EF86F120061
:101AF80020EE06F01350D9261450DA22000EDB80AF
:101B080020EE06F01350D9261450DA22FD0EDF1607
:101B180020EE02F01350D9261450DA22600057F054
:101B2800DEFF60005BF0DDFF60004FF0E1FF60006A
:101B380053F0E2FF6F007BFFE6FF6F0077FFE5FFE2
:101B48001200080E2A60ABEF0DF0ADEF0DF0C4EFF8
:101B58000DF0A30E2B24D96EDA6A000EDA22DF50BC
:101B68003D01EA6F2B2A070E2B64BDEF0DF0BFEF86
:101B78000DF0C1EF0DF0000E2B6E2A2AC6EF0DF006
:101B880039019399120020EE13F00350D92604501E
:101B9800DA22010EDBBEDBEF0DF0010EDB5009E1AE
:101BA8000F0EDE5CD8A0DBEF0DF0DDEF0DF0E3EFFC
:101BB8000DF0000E046E010E036EE7EF0DF0000E3F
:101BC800046E000E036E120020EE13F00350D926A7
:101BD8000450DA22010EDBBEFDEF0DF0010EDB50E2
:101BE80006E1DE04D8B0FBEF0DF0FDEF0DF003EFDA
:101BF8000EF0000E046E010E036E07EF0EF0000EDD
:101C0800046E000E036E120020EE0FF00350D9266A
:101C18000450DA22000EDE6E000EDD6E20EE11F0AA
:101C28000350D9260450DA22000EDE6E000EDD6E57
:101C380020EE13F00350D9260450DA22000EDE6E8F
:101C4800000EDD6E12003901A4B52DEF0EF030EF55
:101C58000EF0010E31EF0EF0000E036E0350D8B4F3
:101C680038EF0EF03AEF0EF03BEF0EF0A49503506C
:101C780012009B0E2924D96EDA6A000EDA226F0050
:101C8800A3F7DFFF292A070E29644DEF0EF04FEF67
:101C98000EF051EF0EF0000E296E272A120000EE0A
:101CA80093F01E0EEE6AE806FDE100EE1AF0130E40
:101CB800EE6AE806FDE1080ED56E000ED66E000E3F
:101CC800D76E000104EF08F0035005026F00CCFF47
:101CD80007F06F00D0FF08F003500602F350082603
:101CE80004500502F350082607C003F008C004F0AA
:101CF800120054EC0FF0A3EC0EF08CEC0BF090EC0F
:101D08000EF049EC0FF04EEC0DF0B5EC0EF0DFECF8
:101D18000BF0D1EC0EF01200200E3901D96F000E35
:101D2800DB6F000EDD6F080EDF6F000EDE6FDCA1CB
:101D3800A0EF0EF0A2EF0EF09BEF0EF01200000ED7
:101D48003901C06F000EC16F000EC26F000EC36F65
:101D5800000EC46F000EC56F000EC66F000EC76F71
:101D68001200030EAE6E000EAD6E000EAF6EC70E03
:101D7800AB6E000EAA6E3901A495D00EAC6E12009F
:101D880060000FF0D9FF600013F0DAFF600017F071
:101D9800DEFF60001BF0DDFF1200020E3D01146F34
:101DA800400E156F000E166F000E1C6F000E196F97
:101DB800C49612002A50D8A4E4EF0EF0E7EF0EF014
:101DC800010EE8EF0EF0000E12002750D8A4EFEF36
:101DD8000EF0F2EF0EF0010EF3EF0EF0000E12000F
:101DE8003E01F8A1FAEF0EF0FDEF0EF0010EFEEF46
:101DF8000EF0000E12003E01F051066E056AEF511A
:101E08000524036E000E0620046E120020EE06F074
:101E18000350D9260450DA22DF50020B120020EEBC
:101E280006F00350D9260450DA22FD0EDF16120000
:101E380020EE09F00350D9260450DA22DF501200B0
:101E4800036E60000FF0F1FE3E01F88FF88112007A
:101E580003C01EF004C01FF0120003C020F004C02D
:101E680021F0120003C0ADF004C0AEF0120003C0B0
:101E7800AFF004C0B0F0120003C0ABF004C0ACF087
:101E88001200600033F0EAFD1200820E3E01C16FBD
:101E980012003B0E3E01F16F12003DEC0EF01200F5
:081EA800D29A12001200120090
:020000040020DA
:10000000FF0FFF0FFF0FFF0FFF0FFF0FFF0FFF0F80
:020000040030CA
:0A000000AFFFF7FF9FFFFFFFFFFFB8
:00000001FF
