:040000000DEF00F010
:04000800ABEF0CF05E
:06001800FF0067EF0DF090
:0710000000024000000000A7
:1010080091EC0DF0C7EC0DF07DEC0CF0F1EC0DF06F
:101018006BEC0AF06C0E136E000E146E030E166E57
:10102800E80E156ED5EC0CF0730E036E000E046E10
:10103800FEEC0CF0600E036E000E046EF3EC0BF089
:10104800600E036E000E046E080E066E000E056E2E
:10105800E4EC0DF0880E036E000E046E3CEC0CF010
:10106800FEEC0DF00009D8B406D06C0E036E000E2D
:10107800046EBCEC09F06C0E036E000E046E15ECE9
:101088000EF00009D8B40CD06C0E036E000E046E7E
:101098001EEC0EF0BD88060E2FEC0EF0010E236E2E
:1010A80045EC0EF00009D8B41BD02350D8B418D0A2
:1010B8000AEC0EF003C01CF004C01DF06DEC0EF03D
:1010C800050E2FEC0EF0730E076E000E086E1CC096
:1010D80009F05BEC0BF0BD98000E236E010E226E3A
:1010E8002250D8B430D045EC0EF00009D8B42BD03B
:1010F800000E226E0AEC0EF003C01AF004C01BF0BA
:101108000B0E1B6EB80E1A6E6DEC0EF0730E076E9A
:10111800000E086EB80E096E5BEC0BF0730E076ECE
:10112800000E086E1CC017F01DC018F0040E196ED2
:10113800183418321732192EFBD71750F00B0B0939
:10114800096E5BEC0BF0730E036E000E046E37EC49
:101158000DF003500410D8A411D037EC0EF000099C
:10116800D8B40CD0730E076E000E086EBDEC0AF0F2
:10117800176E17500C6E0D6A65EC0EF03EEC0EF013
:101188000009D8B406D0880E036E000E046EE9EC90
:1011980008F0880E036E000E046E27EC0EF00009AE
:1011A800D8B45ED76C0E136E000E146E880E096EDE
:1011B800000E0A6E0CEC0BF0010E0924156E000EE1
:1011C8000A20166ED5EC0CF04BD760000FF0D9FF53
:1011D800600013F0DAFF6F00A3F7DFFFA8D060000C
:1011E8000FF0D9FF600013F0DAFF3C0EDE18D8A428
:1011F8000BD020EE07F00350D9260450DA22010E56
:10120800DE6E000EDD6E120020EE07F00350D926C8
:101218000450DA22000EDE6E000EDD6E120020EEA3
:1012280007F00350D9260450DA22020EDE6E000EB3
:10123800DD6E60000FF0D9FF600013F0DAFFDF50B9
:10124800056E066A20EE01F00350D9260450DA2212
:10125800600017F0DEFF60001BF0DDFF120020EEDB
:1012680007F00350D9260450DA22030EDE6E000E72
:10127800DD6E60000FF0D9FF600013F0DAFFDF5079
:10128800056E066A20EE03F00350D9260450DA22D0
:10129800600017F0DEFF60001BF0DDFF120020EE9B
:1012A80007F00350D9260450DA22040EDE6E000E31
:1012B800DD6E60000FF0D9FF600013F0DAFFDF5039
:1012C800056E066A20EE05F00350D9260450DA228E
:1012D800600017F0DEFF60001BF0DDFF1200600009
:1012E8000FF0D9FF600013F0DAFF3E0EDE18D8A425
:1012F80013D020EE09F00350D9260450DA22010E4B
:10130800DF6E20EE07F00350D9260450DA22000ED3
:10131800DE6E000EDD6E120020EE07F00350D926B7
:101328000450DA22000EDE6E000EDD6E120020EE92
:1013380007F00350D9260450DA226F0078FF05F031
:101348006F0074FF06F00650000AD8A4120005507A
:10135800000AD8B444D7010AD8B461D7030AD8B46C
:101368007ED7010AD8B49BD7070AD8A41200B7D7EA
:1013780020EE06F00350D9260450DA22DFA02DD043
:1013880060000FF0D9FF600013F0DAFFDE06000EF0
:10139800DD5A60000FF0D9FF600013F0DAFFDE506D
:1013A800DE10D8A41AD020EE06F00350D926045037
:1013B800DA22000EDB8220EE02F00350D926045018
:1013C800DA2260000FF0E1FF600013F0E2FF6F0027
:1013D8007BFFE6FF6F0077FFE5FF20EE06F0035086
:1013E800D9260450DA22DFA4120020EE04F00350BC
:1013F800D9260450DA226F0078FF05F06F0074FFD9
:1014080006F0FF0E0524076EFF0E0620086E20EE7C
:1014180004F00350D9260450DA2260001FF0DEFFE2
:10142800600023F0DDFF1200000EBE6E000EBD6EE0
:10143800000EBA6E000EBB6E000EBC6E070EC66EB6
:10144800C268C368970EC46EEF0EC56E3A01706924
:10145800670E606F5069070E806F4069000E716FEC
:10146800000E816F000E516F000E416F000E616F0C
:10147800000E5A6F000E5B6F000E6A6F000E6B6FE6
:10148800000E7A6F000E7B6F000E826F000E426FA7
:10149800000E526F000E626F000E726F436953693F
:1014A80063697369070E836F446954696469746971
:1014B8000F0E846F130EDE6F1E0E136F1F0E156F47
:1014C800130E166F170EE56F140EDF6F1200390139
:1014D80093974E0E036E170E046E51EC0EF0390101
:1014E8009399A00E036E1A0E046E4CEC0EF0000ECB
:1014F8003D01EC6F000EED6F000EEE6F000EEF6F0A
:10150800000EF06F000EF16FB00EF26F800EF36FE9
:10151800000EF46F070EF56F000EF66F000EF76FF2
:10152800000EF86F000EF96F000EFA6FEE0E036EE4
:101538001C0E046E5BEC0EF0EC0E036E1C0E046EBB
:1015480056EC0EF0E20E036E1C0E046E60EC0EF00C
:10155800000E266E000E2C6E000E2B6E080E2A6EE4
:10156800000E296E000E286E000E276E3901938733
:10157800120007C003F008C004F037EC0DF0035068
:101588000410D8A427D020EE11F00750D92608500F
:10159800DA226F0078FF09F06F0074FF0AF0095033
:1015A8000724D96E0A500820DA6EDF500B6E20EE41
:1015B80011F00750D9260850DA22DE2A000EDD2263
:1015C80020EE13F00750D9260850DA22DE06000E66
:1015D800DD5A02D0010E120020EE11F00750D92674
:1015E8000850DA22010EDBBE11D0010EDB5004E1F7
:1015F8000F0EDE5CD8A00AD020EE11F00750D926D5
:101608000850DA22000EDE6E000EDD6E0B5012005E
:1016180020EE09F00950D9260A50DA22000EDF6EB2
:1016280020EE05F00950D9260A50DA226F0078FF1B
:101638000BF06F0074FF0CF020EE01F00950D92672
:101648000A50DA226F0078FF03F06F0074FF04F08D
:10165800000E066E640E056E7CEC0DF003C00DF0F6
:1016680004C00EF020EE03F00950D9260A50DA2201
:101678006F0078FF03F06F0074FF04F0000E066E31
:101688000A0E056E7CEC0DF003500D240F6E04500D
:101698000E20106E0B500F24116E0C501020126E7D
:1016A800300E1124096EEB0E12200A6E120007C0CC
:1016B80003F008C004F01DEC0DF003500410D8A48A
:1016C800120020EE0FF00750D9260850DA226F00DA
:1016D80078FF0AF06F0074FF0BF00A500724D96EE8
:1016E8000B500820DA6E600027F0DFFF20EE0FF0C5
:1016F8000750D9260850DA22DE2A000EDD2220EE15
:1017080013F00750D9260850DA22DE2A000EDD220F
:1017180020EE0FF00750D9260850DA22010EDBBE62
:101728001200010EDB5004E10F0EDE5CD8A012009F
:1017380020EE0FF00750D9260850DA22000EDE6E90
:10174800000EDD6E1200930E2924D96EDA6A000E9F
:10175800DA22000EDF6E3D01F9A713D0930E29247B
:10176800D96EDA6A000EDA220001DF8201D809D0C8
:101778000500FA6EAF51FD6EB051FE6EFF6AFA5069
:1017880012003D01F9A313D0930E2924D96EDA6A09
:10179800000EDA220001DF8401D809D00500FA6EB4
:1017A800AD51FD6EAE51FE6EFF6AFA501200930EF7
:1017B8002924D96EDA6A000EDA22DF50D8B40CD0A8
:1017C80001D812000500FA6E0001AB51FD6EAC5154
:1017D800FE6EFF6AFA501200B6EC0DF012006000BF
:1017E8000FF0D9FF600013F0DAFF000EDE6E000E76
:1017F800DD6E20EE04F00350D9260450DA22000EE4
:10180800DF6E20EE03F00350D9260450DA22000ED2
:10181800DF6E20EE05F00350D9260450DA22000EC0
:10182800DF6E20EE02F00350D9260450DA22000EB3
:10183800DF6E20EE06F00350D9260450DA22100E8F
:10184800DE6E000EDD6E20EE08F00350D92604503F
:10185800DA22000EDE6E000EDD6E20EE0AF0035076
:10186800D9260450DA22100EDE6E000EDD6E12004C
:1018780020EE01F00350D9260450DA22000EDE6E65
:10188800000EDD6E20EE03F00350D9260450DA2254
:10189800000EDE6E000EDD6E20EE05F00350D92638
:1018A8000450DA22000EDE6E000EDD6E60000FF0CE
:1018B800D9FF600013F0DAFF000EDF6E20EE09F0AA
:1018C8000350D9260450DA22000EDF6E20EE0AF00B
:1018D8000350D9260450DA22000EDF6E20EE07F0FE
:1018E8000350D9260450DA22000EDE6E000EDD6E9B
:1018F8001200000E3E01DE6F000EDF6F000EE06F7B
:10190800000EE16F000EE46F000EE56F000EEA6F47
:10191800000EEC6F000EF16F000EF36F000EF46F07
:10192800000EF56F000EF66F000EF76F000EF96FE0
:10193800000EFA6F000EFB6F000EFC6F000EFD6FBD
:10194800000EFE6F1F0EFF6F840EF86F12006F00FF
:10195800E8FF01F06F00ECFF02F0390193B9A3A989
:101968000BD001D817D00500FA6E1E50FD6E1F501F
:10197800FE6EFF6AFA50120093B7A3A70BD001D8E6
:1019880009D00500FA6E2050FD6E2150FE6EFF6AE8
:10199800FA50120060000BF0FBFF600007F0FAFF3E
:1019A800110020EE06F01350D9261450DA22000E4A
:1019B800DB8020EE06F01350D9261450DA22FD0EF3
:1019C800DF1620EE02F01350D9261450DA226000F8
:1019D80057F0DEFF60005BF0DDFF60004FF0E1FFD5
:1019E800600053F0E2FF6F007BFFE6FF6F0077FFB8
:1019F800E5FF120020EE0FF00350D9260450DA223A
:101A0800000EDE6E000EDD6E20EE11F00350D926BA
:101A18000450DA22000EDE6E000EDD6E20EE13F0AA
:101A28000350D9260450DA22000EDE6E000EDD6E59
:101A3800120020EE13F00350D9260450DA22010ECA
:101A4800DBBE0CD0010EDB5004E10F0EDE5CD8A02B
:101A580005D0000E046E010E036E1200000E046E17
:101A6800000E036E120020EE13F00350D926045026
:101A7800DA22010EDBBE06D0010EDB5008E1DE04DF
:101A8800D8B005D0000E046E010E036E1200000ED1
:101A9800046E000E036E1200080E2A6011D0A30E09
:101AA8002B24D96EDA6A000EDA22DF503D01EA6F84
:101AB8002B2A070E2B6402D0000E2B6E2A2A120046
:101AC80039019399120000EE93F01E0EEE6AE806B3
:101AD800FDE100EE1AF0130EEE6AE806FDE1080ECD
:101AE800D56E000ED66E000ED76E000104EF08F01A
:101AF800035005026F00CCFF07F06F00D0FF08F01D
:101B080003500602F350082604500502F350082635
:101B180007C003F008C004F0120074EC0EF0A4EC47
:101B28000DF018EC0AF0D6EC0DF069EC0EF07DEC37
:101B38000CF0C7EC0DF06BEC0AF0F1EC0DF01200B4
:101B4800000E3901C06F000EC16F000EC26F000E8B
:101B5800C36F000EC46F000EC56F000EC66F000E77
:101B6800C76F12009B0E2924D96EDA6A000EDA229A
:101B78006F00A3F7DFFF292A070E296402D0000EA1
:101B8800296E272A1200030EAE6E000EAD6E000EEF
:101B9800AF6EC70EAB6E000EAA6E3901A495D00EBB
:101BA800AC6E1200200E3901D96F000EDB6F000EEB
:101BB800DD6F080EDF6F000EDE6FDCB11200FDD79F
:101BC80060000FF0D9FF600013F0DAFF600017F033
:101BD800DEFF60001BF0DDFF1200020E3D01146FF6
:101BE800400E156F000E166F000E1C6F000E196F59
:101BF800C49612003901A4A502D0010E01D0000E2E
:101C0800036E0350D8A4A495035012003E01F0516E
:101C1800066E056AEF510524036E000E0620046E59
:101C2800120020EE06F00350D9260450DA22DF50C5
:101C3800020B120020EE06F00350D9260450DA22D7
:101C4800FD0EDF16120020EE09F00350D9260450CD
:101C5800DA22DF501200036E60000FF0F1FE3E0141
:101C6800F88FF88112002A50D8B402D0010E120061
:101C7800000E12002750D8B402D0010E1200000E38
:101C880012003E01F8B102D0010E1200000E12003F
:101C980003C01EF004C01FF0120003C020F004C0EF
:101CA80021F0120003C0ADF004C0AEF0120003C072
:101CB800AFF004C0B0F0120003C0ABF004C0ACF049
:101CC8001200600033F0EAFD1200820E3E01C16F7F
:101CD80012003B0E3E01F16F1200B6EC0DF012003F
:081CE800D29A12001200120052
:020000040020DA
:10000000FF0FFF0FFF0FFF0FFF0FFF0FFF0FFF0F80
:020000040030CA
:0A000000AFFFF7FF9FFFFFFFFFFFB8
:00000001FF
