:040000000DEF00F010
:0400080022EF0CF0E7
:06001800FF00BCEF0CF03C
:0710000000024000000000A7
:10100800FAEC0CF01FEC0DF0F4EC0BF04BEC0DF0DF
:10101800CFEC09F06C0E136E030E156EE80E146E0D
:101028004CEC0CF0730E036E6FEC0CF0600E036E5C
:101038003EEC0BF0600E036E080E056E000E046E9B
:1010480064EC0DF0880E036EBCEC0BF058EC0DF060
:101058000009D8B404D06C0E036E20EC0AF06C0EB4
:10106800036E78EC0DF00009D8B40AD06C0E036E4C
:1010780080EC0DF0BD88060E88EC0DF0010E226E96
:10108800A5EC0DF00009D8B419D02250D8B416D068
:101098006EEC0DF003C01BF004C01CF0CDEC0DF09D
:1010A800050E88EC0DF0730E076E1BC008F07DEC82
:1010B8000BF0BD98000E226E010E216E2150D8B49F
:1010C8002CD0A5EC0DF00009D8B427D0000E216E65
:1010D8006EEC0DF003C019F004C01AF00B0E1A6E76
:1010E800B80E196ECDEC0DF0730E076EB80E086EC3
:1010F8007DEC0BF0730E076E1BC016F01CC017F0CA
:10110800040E186E173417321632182EFBD71650E5
:10111800F00B0B09086E7DEC0BF0730E036EA4EC5C
:101128000CF003500410D8A40FD097EC0DF0000970
:10113800D8B40AD0730E076EFCEC0AF0166E16507F
:101148000B6E0C6AC5EC0DF09EEC0DF00009D8B4DE
:1011580004D0880E036EC7EC08F0880E036E90EC7E
:101168000DF00009D8B472D76C0E136E880E096E94
:101178006DEC0AF0010E0924146E000E0A20156E9B
:101188004CEC0CF063D70350D96EDA6A6F00A3F702
:10119800DFFF8ED00350D96EDA6A3C0EDE18D8A471
:1011A8000AD00350D96EDA6A070ED926010EDE6E10
:1011B800000EDD6E12000350D96EDA6A070ED926CA
:1011C800000EDE6E000EDD6E12000350D96EDA6A74
:1011D800070ED926020EDE6E000EDD6E0350D96EA4
:1011E800DA6ADF50046E056A0350D96EDA6A010EB6
:1011F800D926600013F0DEFF600017F0DDFF120053
:101208000350D96EDA6A070ED926030EDE6E000E79
:10121800DD6E0350D96EDA6ADF50046E056A03503A
:10122800D96EDA6A030ED926600013F0DEFF60007B
:1012380017F0DDFF12000350D96EDA6A070ED926BF
:10124800040EDE6E000EDD6E0350D96EDA6ADF50D2
:10125800046E056A0350D96EDA6A050ED926600055
:1012680013F0DEFF600017F0DDFF12000350D96EA7
:10127800DA6A3E0EDE18D8A411D00350D96EDA6AA5
:10128800090ED926010EDF6E0350D96EDA6A070EF1
:10129800D926000EDE6E000EDD6E12000350D96EE8
:1012A800DA6A070ED926000EDE6E000EDD6E120019
:1012B8000350D96EDA6A070ED9266F0078FF04F05A
:1012C8006F0074FF05F00550000AD8A412000450FE
:1012D800000AD8B45FD7010AD8B477D7030AD8B4BC
:1012E8008FD7010AD8B4A7D7070AD8A41200BED747
:1012F800000EBE6E000EBD6E000EBA6E000EBB6E06
:10130800000EBC6E070EC66EC268C368970EC46E28
:10131800EF0EC56E3A017069670E606F5069070E6F
:10132800806F4069000E716F000E816F000E516F63
:10133800000E416F000E616F000E5A6F000E5B6F5A
:10134800000E6A6F000E6B6F000E7A6F000E7B6FD7
:10135800000E826F000E426F000E526F000E626F19
:10136800000E726F4369536963697369070E836F6F
:1013780044695469646974690F0E846F130EDE6FD3
:101388001E0E136F1F0E156F130E166F170EE56FD7
:10139800140EDF6F120039019397700E036E150E4D
:1013A800046EB1EC0DF09399CC0E036E190E046E19
:1013B800ACEC0DF0000E3D01EC6F000EED6F000E71
:1013C800EE6F000EEF6F000EF06F000EF16FB00EB3
:1013D800F26F800EF36F000EF46F070EF56F000EBC
:1013E800F66F000EF76F000EF86F000EF96F000E23
:1013F800FA6FAC0E036E1B0E046EBBEC0DF0AA0E5A
:10140800036E1B0E046EB6EC0DF0A00E036E1B0EE1
:10141800046EC0EC0DF0000E256E000E2B6E000E53
:101428002A6E080E296E000E286E000E276E000E1A
:10143800266E3901938712000350D96EDA6A060EB8
:10144800D926DFA022D00350D96EDA6ADE06000E54
:10145800DD5A0350D96EDA6ADE50DE10D8A415D0F2
:101468000350D96EDA6A060ED926000EDB820350C5
:10147800D96EDA6A020ED9260350E16EE26A6F006D
:101488007BFFE6FF6F0077FFE5FF0350D96EDA6A4E
:10149800060ED926DFA412000350D96EDA6A040EAC
:1014A800D9266F0078FF04F06F0074FF05F0FF0E77
:1014B8000424066EFF0E0520076E0350D96EDA6A03
:1014C800040ED92660001BF0DEFF60001FF0DDFF70
:1014D80012000950D96EDA6A090ED926000EDF6E9D
:1014E8000950D96EDA6A050ED9266F0078FF0BF01D
:1014F8006F0074FF0CF00950D96EDA6A010ED92614
:101508006F0078FF03F06F0074FF04F0000E066EA2
:10151800640E056ED1EC0CF003C00DF004C00EF0A3
:101528000950D96EDA6A030ED9266F0078FF03F0E6
:101538006F0074FF04F0000E066E0A0E056ED1EC03
:101548000CF003500D240F6E04500E20106E0B503B
:101558000F24116E0C501020126E300E1124096EDB
:10156800EB0E12200A6E12002850930FD96EDA6A19
:10157800000EDF6E3D01F9A711D02850930FD96EE8
:10158800DA6A0001DF8201D809D00500FA6EAF518E
:10159800FD6EB051FE6EFF6AFA5012003D01F9A3CC
:1015A80011D02850930FD96EDA6A0001DF8401D870
:1015B80009D00500FA6EAD51FD6EAE51FE6EFF6AA0
:1015C800FA5012002850930FD96EDA6ADF50D8B457
:1015D8000CD001D812000500FA6E0001AB51FD6E67
:1015E800AC51FE6EFF6AFA5012002EEC0DF012009C
:1015F80007C003F0A4EC0CF003500410D8A41ED0CC
:101608000750D96EDA6A110ED926DF50086E0750D6
:101618000824D96EDA6ADF500A6E0750D96EDA6A82
:10162800110ED926DE2A000EDD220750D96EDA6A9D
:10163800130ED926DE06000EDD5A02D0010E120066
:101648000750D96EDA6A110ED926010EDBBE10D00A
:10165800010EDB5004E10F0EDE5CD8A009D0075064
:10166800D96EDA6A110ED926000EDE6E000EDD6E16
:101678000A5012000350D96EDA6A000EDE6E000EB0
:10168800DD6E0350D96EDA6A040ED926000EDF6EBD
:101698000350D96EDA6A030ED926000EDF6E0350A6
:1016A800D96EDA6A050ED926000EDF6E0350D96EA0
:1016B800DA6A020ED926000EDF6E0350D96EDA6A96
:1016C800060ED926100EDE6E000EDD6E0350D96EA2
:1016D800DA6A080ED926000EDE6E000EDD6E0350A3
:1016E800D96EDA6A0A0ED926100EDE6E000EDD6E8D
:1016F800120007C003F08BEC0CF003500410D8A4C0
:1017080012000750D96EDA6A0F0ED926DF50096E1B
:1017180007500924D96EDA6A600023F0DFFF07500A
:10172800D96EDA6A0F0ED926DE2A000EDD2207509E
:10173800D96EDA6A130ED926DE2A000EDD2207508A
:10174800D96EDA6A0F0ED926010EDBBE1200010E21
:10175800DB5004E10F0EDE5CD8A012000750D96EF2
:10176800DA6A0F0ED926000EDE6E000EDD6E12004C
:101778000350D96EDA6A010ED926000EDE6E000E0D
:10178800DD6E0350D96EDA6A030ED926000EDE6EBE
:10179800000EDD6E0350D96EDA6A050ED926000EEA
:1017A800DE6E000EDD6E0350D96EDA6A000EDF6E53
:1017B8000350D96EDA6A090ED926000EDF6E03507F
:1017C800D96EDA6A0A0ED926000EDF6E0350D96E7A
:1017D800DA6A070ED926000EDE6E000EDD6E1200E4
:1017E800000E3E01DE6F000EDF6F000EE06F000E90
:1017F800E16F000EE46F000EE56F000EEA6F000E59
:10180800EC6F000EF16F000EF36F000EF46F000E18
:10181800F56F000EF66F000EF76F000EF96F000EF1
:10182800FA6F000EFB6F000EFC6F000EFD6F000ECE
:10183800FE6F1F0EFF6F840EF86F12006F00E8FF37
:1018480001F06F00ECFF02F0390193B9A3A90BD0A6
:1018580001D817D00500FA6E1D50FD6E1E50FE6EA1
:10186800FF6AFA50120093B7A3A70BD001D809D08A
:101878000500FA6E1F50FD6E2050FE6EFF6AFA508A
:10188800120060000BF0FBFF600007F0FAFF110088
:101898001350D96EDA6A060ED926000EDB80135073
:1018A800D96EDA6A060ED926FD0EDF161350D96EE8
:1018B800DA6A020ED926600053F0DEFF600057F0A6
:1018C800DDFF1350E16EE26A6F007BFFE6FF6F00F9
:1018D80077FFE5FF12000350D96EDA6A0F0ED9269A
:1018E800000EDE6E000EDD6E0350D96EDA6A110E40
:1018F800D926000EDE6E000EDD6E0350D96EDA6A50
:10190800130ED926000EDE6E000EDD6E1200035097
:10191800D96EDA6A130ED926010EDBBE0CD0010E81
:10192800DB5004E10F0EDE5CD8A005D0000E046E7B
:10193800010E036E1200000E046E000E036E1200FC
:101948000350D96EDA6A130ED926010EDBBE06D013
:10195800010EDB5008E1DE04D8B005D0000E046E9D
:10196800010E036E1200000E046E000E036E1200CC
:1019780000EE93F01E0EEE6AE806FDE100EE19F0A7
:10198800130EEE6AE806FDE1080ED56E000ED66E5F
:10199800000ED76E000104EF08F0035005026F0037
:1019A800CCFF07F06F00D0FF08F003500602F35099
:1019B800082604500502F350082607C003F008C0A3
:1019C80004F01200080E29600FD02A50A30FD96E18
:1019D800DA6ADF503D01EA6F2A2A070E2A6402D02C
:1019E800000E2A6E292A120093991200D3EC0DF0EA
:1019F8000DEC0DF07CEC09F03DEC0DF0C9EC0DF0B0
:101A0800F4EC0BF01FEC0DF0CFEC09F04BEC0DF003
:101A18001200000E3901C06F000EC16F000EC26FB8
:101A2800000EC36F000EC46F000EC56F000EC66FA8
:101A3800000EC76F1200030EAE6E000EAD6E000EE4
:101A4800AF6EC70EAB6E000EAA6E3901A495D00E0C
:101A5800AC6E120028509B0FD96EDA6A6F00A3F79C
:101A6800DFFF282A070E286402D0000E286E262AD7
:101A78001200200E3901D96F000EDB6F000EDD6FEA
:101A8800080EDF6F000EDE6FDCB11200FDD7020E0C
:101A98003D01146F400E156F000E166F000E1C6F7F
:101AA800000E196FC49612003901A4A502D0010EC8
:101AB80001D0000E036E0350D8A4A4950350120061
:101AC8000350D96EDA6A600013F0DEFF600017F089
:101AD800DDFF1200F051066E056AEF510524036E12
:101AE800000E0620046E12000350D96EDA6A060E44
:101AF800D926DF50020B12000350D96EDA6A060E9F
:101B0800D926FD0EDF161200036E60000FF0F1FEFD
:101B18003E01F88FF88112000350D96EDA6A090E77
:101B2800D926DF5012002950D8B402D0010E120075
:101B3800000E12002650D8B402D0010E1200000E7A
:101B480012003E01F8B102D0010E1200000E120080
:101B580003C01DF004C01EF0120003C01FF004C033
:101B680020F0120003C0ADF004C0AEF0120003C0B4
:101B7800AFF004C0B0F0120003C0ABF004C0ACF08A
:101B8800120060002FF0EAFD1200820E3E01C16FC4
:101B980012003B0EF16F12002EEC0DF01200D29ADB
:061BA80012001200120001
:020000040020DA
:10000000FF0FFF0FFF0FFF0FFF0FFF0FFF0FFF0F80
:020000040030CA
:0A000000AFFFF7FF9FFFFFFFFFFFB8
:00000001FF
